{
  "_format": "hh-sol-artifact-1",
  "contractName": "PreDEXEscrow",
  "sourceName": "contracts/PreDEXEscrow.sol",
  "abi": [
    {
      "inputs": [
        {
          "internalType": "address",
          "name": "_partyA",
          "type": "address"
        },
        {
          "internalType": "address",
          "name": "_partyB",
          "type": "address"
        },
        {
          "internalType": "uint256",
          "name": "_stakeAmount",
          "type": "uint256"
        },
        {
          "internalType": "uint256",
          "name": "_fundingDeadline",
          "type": "uint256"
        },
        {
          "internalType": "address",
          "name": "_treasury",
          "type": "address"
        },
        {
          "internalType": "address",
          "name": "_arbiter",
          "type": "address"
        },
        {
          "internalType": "uint256",
          "name": "_disputeWindowSeconds",
          "type": "uint256"
        }
      ],
      "stateMutability": "payable",
      "type": "constructor"
    },
    {
      "inputs": [],
      "name": "ReentrancyGuardReentrantCall",
      "type": "error"
    },
    {
      "anonymous": false,
      "inputs": [
        {
          "indexed": true,
          "internalType": "address",
          "name": "party",
          "type": "address"
        },
        {
          "indexed": false,
          "internalType": "uint256",
          "name": "amount",
          "type": "uint256"
        }
      ],
      "name": "Deposited",
      "type": "event"
    },
    {
      "anonymous": false,
      "inputs": [
        {
          "indexed": true,
          "internalType": "address",
          "name": "by",
          "type": "address"
        }
      ],
      "name": "Disputed",
      "type": "event"
    },
    {
      "anonymous": false,
      "inputs": [
        {
          "indexed": true,
          "internalType": "address",
          "name": "party",
          "type": "address"
        },
        {
          "indexed": false,
          "internalType": "uint256",
          "name": "amount",
          "type": "uint256"
        }
      ],
      "name": "Refunded",
      "type": "event"
    },
    {
      "anonymous": false,
      "inputs": [
        {
          "indexed": true,
          "internalType": "address",
          "name": "winner",
          "type": "address"
        },
        {
          "indexed": false,
          "internalType": "uint256",
          "name": "payout",
          "type": "uint256"
        },
        {
          "indexed": false,
          "internalType": "uint256",
          "name": "fee",
          "type": "uint256"
        }
      ],
      "name": "Resolved",
      "type": "event"
    },
    {
      "anonymous": false,
      "inputs": [
        {
          "indexed": true,
          "internalType": "address",
          "name": "proposedWinner",
          "type": "address"
        },
        {
          "indexed": true,
          "internalType": "address",
          "name": "proposedBy",
          "type": "address"
        },
        {
          "indexed": false,
          "internalType": "uint256",
          "name": "disputeDeadline",
          "type": "uint256"
        }
      ],
      "name": "WinnerProposed",
      "type": "event"
    },
    {
      "inputs": [],
      "name": "arbiter",
      "outputs": [
        {
          "internalType": "address",
          "name": "",
          "type": "address"
        }
      ],
      "stateMutability": "view",
      "type": "function"
    },
    {
      "inputs": [
        {
          "internalType": "address",
          "name": "_winner",
          "type": "address"
        }
      ],
      "name": "arbitrate",
      "outputs": [],
      "stateMutability": "nonpayable",
      "type": "function"
    },
    {
      "inputs": [],
      "name": "deposit",
      "outputs": [],
      "stateMutability": "payable",
      "type": "function"
    },
    {
      "inputs": [],
      "name": "dispute",
      "outputs": [],
      "stateMutability": "nonpayable",
      "type": "function"
    },
    {
      "inputs": [],
      "name": "disputeDeadline",
      "outputs": [
        {
          "internalType": "uint256",
          "name": "",
          "type": "uint256"
        }
      ],
      "stateMutability": "view",
      "type": "function"
    },
    {
      "inputs": [],
      "name": "disputeWindowSeconds",
      "outputs": [
        {
          "internalType": "uint256",
          "name": "",
          "type": "uint256"
        }
      ],
      "stateMutability": "view",
      "type": "function"
    },
    {
      "inputs": [],
      "name": "disputed",
      "outputs": [
        {
          "internalType": "bool",
          "name": "",
          "type": "bool"
        }
      ],
      "stateMutability": "view",
      "type": "function"
    },
    {
      "inputs": [],
      "name": "feeBps",
      "outputs": [
        {
          "internalType": "uint256",
          "name": "",
          "type": "uint256"
        }
      ],
      "stateMutability": "view",
      "type": "function"
    },
    {
      "inputs": [],
      "name": "finalize",
      "outputs": [],
      "stateMutability": "nonpayable",
      "type": "function"
    },
    {
      "inputs": [],
      "name": "fundingDeadline",
      "outputs": [
        {
          "internalType": "uint256",
          "name": "",
          "type": "uint256"
        }
      ],
      "stateMutability": "view",
      "type": "function"
    },
    {
      "inputs": [],
      "name": "partyA",
      "outputs": [
        {
          "internalType": "address",
          "name": "",
          "type": "address"
        }
      ],
      "stateMutability": "view",
      "type": "function"
    },
    {
      "inputs": [],
      "name": "partyB",
      "outputs": [
        {
          "internalType": "address",
          "name": "",
          "type": "address"
        }
      ],
      "stateMutability": "view",
      "type": "function"
    },
    {
      "inputs": [
        {
          "internalType": "address",
          "name": "_winner",
          "type": "address"
        }
      ],
      "name": "proposeWinner",
      "outputs": [],
      "stateMutability": "nonpayable",
      "type": "function"
    },
    {
      "inputs": [],
      "name": "proposedBy",
      "outputs": [
        {
          "internalType": "address",
          "name": "",
          "type": "address"
        }
      ],
      "stateMutability": "view",
      "type": "function"
    },
    {
      "inputs": [],
      "name": "proposedWinner",
      "outputs": [
        {
          "internalType": "address",
          "name": "",
          "type": "address"
        }
      ],
      "stateMutability": "view",
      "type": "function"
    },
    {
      "inputs": [],
      "name": "refundIfUnmatched",
      "outputs": [],
      "stateMutability": "nonpayable",
      "type": "function"
    },
    {
      "inputs": [],
      "name": "stakeAmount",
      "outputs": [
        {
          "internalType": "uint256",
          "name": "",
          "type": "uint256"
        }
      ],
      "stateMutability": "view",
      "type": "function"
    },
    {
      "inputs": [],
      "name": "state",
      "outputs": [
        {
          "internalType": "enum PreDEXEscrow.State",
          "name": "",
          "type": "uint8"
        }
      ],
      "stateMutability": "view",
      "type": "function"
    },
    {
      "inputs": [],
      "name": "treasury",
      "outputs": [
        {
          "internalType": "address",
          "name": "",
          "type": "address"
        }
      ],
      "stateMutability": "view",
      "type": "function"
    },
    {
      "inputs": [],
      "name": "winner",
      "outputs": [
        {
          "internalType": "address",
          "name": "",
          "type": "address"
        }
      ],
      "stateMutability": "view",
      "type": "function"
    }
  ],
  "bytecode": "0x6080604052606460085560405162002ed738038062002ed783398181016040528101906200002e9190620005ce565b6001600081905550600073ffffffffffffffffffffffffffffffffffffffff168773ffffffffffffffffffffffffffffffffffffffff1603620000a8576040517f08c379a00000000000000000000000000000000000000000000000000000000081526004016200009f90620006e2565b60405180910390fd5b600073ffffffffffffffffffffffffffffffffffffffff168673ffffffffffffffffffffffffffffffffffffffff16036200011a576040517f08c379a0000000000000000000000000000000000000000000000000000000008152600401620001119062000754565b60405180910390fd5b8573ffffffffffffffffffffffffffffffffffffffff168773ffffffffffffffffffffffffffffffffffffffff16036200018b576040517f08c379a00000000000000000000000000000000000000000000000000000000081526004016200018290620007c6565b60405180910390fd5b600073ffffffffffffffffffffffffffffffffffffffff168373ffffffffffffffffffffffffffffffffffffffff1603620001fd576040517f08c379a0000000000000000000000000000000000000000000000000000000008152600401620001f49062000838565b60405180910390fd5b600073ffffffffffffffffffffffffffffffffffffffff168273ffffffffffffffffffffffffffffffffffffffff16036200026f576040517f08c379a00000000000000000000000000000000000000000000000000000000081526004016200026690620008aa565b60405180910390fd5b60008511620002b5576040517f08c379a0000000000000000000000000000000000000000000000000000000008152600401620002ac906200091c565b60405180910390fd5b428411620002fa576040517f08c379a0000000000000000000000000000000000000000000000000000000008152600401620002f1906200098e565b60405180910390fd5b6000811162000340576040517f08c379a0000000000000000000000000000000000000000000000000000000008152600401620003379062000a00565b60405180910390fd5b84341462000385576040517f08c379a00000000000000000000000000000000000000000000000000000000081526004016200037c9062000a72565b60405180910390fd5b86600160006101000a81548173ffffffffffffffffffffffffffffffffffffffff021916908373ffffffffffffffffffffffffffffffffffffffff16021790555085600260006101000a81548173ffffffffffffffffffffffffffffffffffffffff021916908373ffffffffffffffffffffffffffffffffffffffff160217905550846006819055508360078190555082600360006101000a81548173ffffffffffffffffffffffffffffffffffffffff021916908373ffffffffffffffffffffffffffffffffffffffff16021790555081600460006101000a81548173ffffffffffffffffffffffffffffffffffffffff021916908373ffffffffffffffffffffffffffffffffffffffff160217905550806009819055506000600c60156101000a81548160ff02191690836005811115620004c757620004c662000a94565b5b02179055508673ffffffffffffffffffffffffffffffffffffffff167f2da466a7b24304f47e87fa2e1e5a81b9831ce54fec19055ce277ca2f39ba42c43460405162000514919062000ad4565b60405180910390a25050505050505062000af1565b600080fd5b600073ffffffffffffffffffffffffffffffffffffffff82169050919050565b60006200055b826200052e565b9050919050565b6200056d816200054e565b81146200057957600080fd5b50565b6000815190506200058d8162000562565b92915050565b6000819050919050565b620005a88162000593565b8114620005b457600080fd5b50565b600081519050620005c8816200059d565b92915050565b600080600080600080600060e0888a031215620005f057620005ef62000529565b5b6000620006008a828b016200057c565b9750506020620006138a828b016200057c565b9650506040620006268a828b01620005b7565b9550506060620006398a828b01620005b7565b94505060806200064c8a828b016200057c565b93505060a06200065f8a828b016200057c565b92505060c0620006728a828b01620005b7565b91505092959891949750929550565b600082825260208201905092915050565b7f496e76616c696420706172747941000000000000000000000000000000000000600082015250565b6000620006ca600e8362000681565b9150620006d78262000692565b602082019050919050565b60006020820190508181036000830152620006fd81620006bb565b9050919050565b7f496e76616c696420706172747942000000000000000000000000000000000000600082015250565b60006200073c600e8362000681565b9150620007498262000704565b602082019050919050565b600060208201905081810360008301526200076f816200072d565b9050919050565b7f53616d6520706172746965730000000000000000000000000000000000000000600082015250565b6000620007ae600c8362000681565b9150620007bb8262000776565b602082019050919050565b60006020820190508181036000830152620007e1816200079f565b9050919050565b7f496e76616c696420747265617375727900000000000000000000000000000000600082015250565b60006200082060108362000681565b91506200082d82620007e8565b602082019050919050565b60006020820190508181036000830152620008538162000811565b9050919050565b7f496e76616c696420617262697465720000000000000000000000000000000000600082015250565b600062000892600f8362000681565b91506200089f826200085a565b602082019050919050565b60006020820190508181036000830152620008c58162000883565b9050919050565b7f5374616b65206d757374206265203e2030000000000000000000000000000000600082015250565b60006200090460118362000681565b91506200091182620008cc565b602082019050919050565b600060208201905081810360008301526200093781620008f5565b9050919050565b7f496e76616c69642066756e64696e6720646561646c696e650000000000000000600082015250565b60006200097660188362000681565b915062000983826200093e565b602082019050919050565b60006020820190508181036000830152620009a98162000967565b9050919050565b7f496e76616c696420646973707574652077696e646f7700000000000000000000600082015250565b6000620009e860168362000681565b9150620009f582620009b0565b602082019050919050565b6000602082019050818103600083015262000a1b81620009d9565b9050919050565b7f506172747941206d7573742066756e6400000000000000000000000000000000600082015250565b600062000a5a60108362000681565b915062000a678262000a22565b602082019050919050565b6000602082019050818103600083015262000a8d8162000a4b565b9050919050565b7f4e487b7100000000000000000000000000000000000000000000000000000000600052602160045260246000fd5b62000ace8162000593565b82525050565b600060208201905062000aeb600083018462000ac3565b92915050565b6123d68062000b016000396000f3fe60806040526004361061011f5760003560e01c806360c7dc47116100a0578063c19d93fb11610064578063c19d93fb1461037d578063d0e30db0146103a8578063dfbf53ae146103b2578063f240f7c3146103dd578063fe25e00a146103f45761011f565b806360c7dc47146102a657806360c92613146102d157806361d027b3146102fc578063796b23bb1461032757806379e2b513146103525761011f565b8063232877d0116100e7578063232877d0146101e557806324a9d85314610210578063290401131461023b5780633d08d0e6146102665780634bb278f31461028f5761011f565b8063012056ad146101245780630695c46c1461014d57806310e1d8ca146101785780631263d7d2146101a3578063216e283f146101ba575b600080fd5b34801561013057600080fd5b5061014b600480360381019061014691906119ae565b61041f565b005b34801561015957600080fd5b506101626106df565b60405161016f91906119f6565b60405180910390f35b34801561018457600080fd5b5061018d6106f2565b60405161019a9190611a20565b60405180910390f35b3480156101af57600080fd5b506101b8610718565b005b3480156101c657600080fd5b506101cf6109a4565b6040516101dc9190611a54565b60405180910390f35b3480156101f157600080fd5b506101fa6109aa565b6040516102079190611a54565b60405180910390f35b34801561021c57600080fd5b506102256109b0565b6040516102329190611a54565b60405180910390f35b34801561024757600080fd5b506102506109b6565b60405161025d9190611a20565b60405180910390f35b34801561027257600080fd5b5061028d600480360381019061028891906119ae565b6109dc565b005b34801561029b57600080fd5b506102a4610e47565b005b3480156102b257600080fd5b506102bb611044565b6040516102c89190611a54565b60405180910390f35b3480156102dd57600080fd5b506102e661104a565b6040516102f39190611a20565b60405180910390f35b34801561030857600080fd5b50610311611070565b60405161031e9190611a20565b60405180910390f35b34801561033357600080fd5b5061033c611096565b6040516103499190611a54565b60405180910390f35b34801561035e57600080fd5b5061036761109c565b6040516103749190611a20565b60405180910390f35b34801561038957600080fd5b506103926110c2565b60405161039f9190611ae6565b60405180910390f35b6103b06110d5565b005b3480156103be57600080fd5b506103c7611395565b6040516103d49190611a20565b60405180910390f35b3480156103e957600080fd5b506103f26113bb565b005b34801561040057600080fd5b5061040961172f565b6040516104169190611a20565b60405180910390f35b600460009054906101000a900473ffffffffffffffffffffffffffffffffffffffff1673ffffffffffffffffffffffffffffffffffffffff163373ffffffffffffffffffffffffffffffffffffffff16146104af576040517f08c379a00000000000000000000000000000000000000000000000000000000081526004016104a690611b5e565b60405180910390fd5b600460058111156104c3576104c2611a6f565b5b600c60159054906101000a900460ff1660058111156104e5576104e4611a6f565b5b14158015610526575060058081111561050157610500611a6f565b5b600c60159054906101000a900460ff16600581111561052357610522611a6f565b5b14155b610565576040517f08c379a000000000000000000000000000000000000000000000000000000000815260040161055c90611bca565b60405180910390fd5b61056d611755565b6003600581111561058157610580611a6f565b5b600c60159054906101000a900460ff1660058111156105a3576105a2611a6f565b5b146105e3576040517f08c379a00000000000000000000000000000000000000000000000000000000081526004016105da90611c36565b60405180910390fd5b600160009054906101000a900473ffffffffffffffffffffffffffffffffffffffff1673ffffffffffffffffffffffffffffffffffffffff168173ffffffffffffffffffffffffffffffffffffffff16148061068c5750600260009054906101000a900473ffffffffffffffffffffffffffffffffffffffff1673ffffffffffffffffffffffffffffffffffffffff168173ffffffffffffffffffffffffffffffffffffffff16145b6106cb576040517f08c379a00000000000000000000000000000000000000000000000000000000081526004016106c290611ca2565b60405180910390fd5b6106d48161179b565b6106dc611941565b50565b600c60149054906101000a900460ff1681565b600160009054906101000a900473ffffffffffffffffffffffffffffffffffffffff1681565b6004600581111561072c5761072b611a6f565b5b600c60159054906101000a900460ff16600581111561074e5761074d611a6f565b5b1415801561078f575060058081111561076a57610769611a6f565b5b600c60159054906101000a900460ff16600581111561078c5761078b611a6f565b5b14155b6107ce576040517f08c379a00000000000000000000000000000000000000000000000000000000081526004016107c590611bca565b60405180910390fd5b6107d6611755565b600060058111156107ea576107e9611a6f565b5b600c60159054906101000a900460ff16600581111561080c5761080b611a6f565b5b1461084c576040517f08c379a000000000000000000000000000000000000000000000000000000000815260040161084390611d0e565b60405180910390fd5b6007544211610890576040517f08c379a000000000000000000000000000000000000000000000000000000000815260040161088790611d7a565b60405180910390fd5b6005600c60156101000a81548160ff021916908360058111156108b6576108b5611a6f565b5b02179055506000479050600160009054906101000a900473ffffffffffffffffffffffffffffffffffffffff1673ffffffffffffffffffffffffffffffffffffffff166108fc829081150290604051600060405180830381858888f19350505050158015610928573d6000803e3d6000fd5b50600160009054906101000a900473ffffffffffffffffffffffffffffffffffffffff1673ffffffffffffffffffffffffffffffffffffffff167fd7dee2702d63ad89917b6a4da9981c90c4d24f8c2bdfd64c604ecae57d8d0651826040516109919190611a54565b60405180910390a2506109a2611941565b565b600a5481565b60095481565b60085481565b600260009054906101000a900473ffffffffffffffffffffffffffffffffffffffff1681565b600160009054906101000a900473ffffffffffffffffffffffffffffffffffffffff1673ffffffffffffffffffffffffffffffffffffffff163373ffffffffffffffffffffffffffffffffffffffff161480610a855750600260009054906101000a900473ffffffffffffffffffffffffffffffffffffffff1673ffffffffffffffffffffffffffffffffffffffff163373ffffffffffffffffffffffffffffffffffffffff16145b610ac4576040517f08c379a0000000000000000000000000000000000000000000000000000000008152600401610abb90611de6565b60405180910390fd5b60046005811115610ad857610ad7611a6f565b5b600c60159054906101000a900460ff166005811115610afa57610af9611a6f565b5b14158015610b3b5750600580811115610b1657610b15611a6f565b5b600c60159054906101000a900460ff166005811115610b3857610b37611a6f565b5b14155b610b7a576040517f08c379a0000000000000000000000000000000000000000000000000000000008152600401610b7190611bca565b60405180910390fd5b60016005811115610b8e57610b8d611a6f565b5b600c60159054906101000a900460ff166005811115610bb057610baf611a6f565b5b14610bf0576040517f08c379a0000000000000000000000000000000000000000000000000000000008152600401610be790611e52565b60405180910390fd5b600160009054906101000a900473ffffffffffffffffffffffffffffffffffffffff1673ffffffffffffffffffffffffffffffffffffffff168173ffffffffffffffffffffffffffffffffffffffff161480610c995750600260009054906101000a900473ffffffffffffffffffffffffffffffffffffffff1673ffffffffffffffffffffffffffffffffffffffff168173ffffffffffffffffffffffffffffffffffffffff16145b610cd8576040517f08c379a0000000000000000000000000000000000000000000000000000000008152600401610ccf90611ca2565b60405180910390fd5b80600b60006101000a81548173ffffffffffffffffffffffffffffffffffffffff021916908373ffffffffffffffffffffffffffffffffffffffff16021790555033600c60006101000a81548173ffffffffffffffffffffffffffffffffffffffff021916908373ffffffffffffffffffffffffffffffffffffffff16021790555060095442610d689190611ea1565b600a819055506002600c60156101000a81548160ff02191690836005811115610d9457610d93611a6f565b5b0217905550600c60009054906101000a900473ffffffffffffffffffffffffffffffffffffffff1673ffffffffffffffffffffffffffffffffffffffff16600b60009054906101000a900473ffffffffffffffffffffffffffffffffffffffff1673ffffffffffffffffffffffffffffffffffffffff167f91858fc926d2a983cc74a4f6f23762cdb4ad201847791417de5f5a62d049eeff600a54604051610e3c9190611a54565b60405180910390a350565b60046005811115610e5b57610e5a611a6f565b5b600c60159054906101000a900460ff166005811115610e7d57610e7c611a6f565b5b14158015610ebe5750600580811115610e9957610e98611a6f565b5b600c60159054906101000a900460ff166005811115610ebb57610eba611a6f565b5b14155b610efd576040517f08c379a0000000000000000000000000000000000000000000000000000000008152600401610ef490611bca565b60405180910390fd5b610f05611755565b60026005811115610f1957610f18611a6f565b5b600c60159054906101000a900460ff166005811115610f3b57610f3a611a6f565b5b14610f7b576040517f08c379a0000000000000000000000000000000000000000000000000000000008152600401610f7290611f21565b60405180910390fd5b600c60149054906101000a900460ff1615610fcb576040517f08c379a0000000000000000000000000000000000000000000000000000000008152600401610fc290611f8d565b60405180910390fd5b600a54421161100f576040517f08c379a000000000000000000000000000000000000000000000000000000000815260040161100690611ff9565b60405180910390fd5b61103a600b60009054906101000a900473ffffffffffffffffffffffffffffffffffffffff1661179b565b611042611941565b565b60065481565b600c60009054906101000a900473ffffffffffffffffffffffffffffffffffffffff1681565b600360009054906101000a900473ffffffffffffffffffffffffffffffffffffffff1681565b60075481565b600b60009054906101000a900473ffffffffffffffffffffffffffffffffffffffff1681565b600c60159054906101000a900460ff1681565b600460058111156110e9576110e8611a6f565b5b600c60159054906101000a900460ff16600581111561110b5761110a611a6f565b5b1415801561114c575060058081111561112757611126611a6f565b5b600c60159054906101000a900460ff16600581111561114957611148611a6f565b5b14155b61118b576040517f08c379a000000000000000000000000000000000000000000000000000000000815260040161118290611bca565b60405180910390fd5b600260009054906101000a900473ffffffffffffffffffffffffffffffffffffffff1673ffffffffffffffffffffffffffffffffffffffff163373ffffffffffffffffffffffffffffffffffffffff161461121b576040517f08c379a000000000000000000000000000000000000000000000000000000000815260040161121290612065565b60405180910390fd5b6000600581111561122f5761122e611a6f565b5b600c60159054906101000a900460ff16600581111561125157611250611a6f565b5b14611291576040517f08c379a000000000000000000000000000000000000000000000000000000000815260040161128890611d0e565b60405180910390fd5b6007544211156112d6576040517f08c379a00000000000000000000000000000000000000000000000000000000081526004016112cd906120d1565b60405180910390fd5b600654341461131a576040517f08c379a00000000000000000000000000000000000000000000000000000000081526004016113119061213d565b60405180910390fd5b6001600c60156101000a81548160ff021916908360058111156113405761133f611a6f565b5b02179055503373ffffffffffffffffffffffffffffffffffffffff167f2da466a7b24304f47e87fa2e1e5a81b9831ce54fec19055ce277ca2f39ba42c43460405161138b9190611a54565b60405180910390a2565b600560009054906101000a900473ffffffffffffffffffffffffffffffffffffffff1681565b600160009054906101000a900473ffffffffffffffffffffffffffffffffffffffff1673ffffffffffffffffffffffffffffffffffffffff163373ffffffffffffffffffffffffffffffffffffffff1614806114645750600260009054906101000a900473ffffffffffffffffffffffffffffffffffffffff1673ffffffffffffffffffffffffffffffffffffffff163373ffffffffffffffffffffffffffffffffffffffff16145b6114a3576040517f08c379a000000000000000000000000000000000000000000000000000000000815260040161149a90611de6565b60405180910390fd5b600460058111156114b7576114b6611a6f565b5b600c60159054906101000a900460ff1660058111156114d9576114d8611a6f565b5b1415801561151a57506005808111156114f5576114f4611a6f565b5b600c60159054906101000a900460ff16600581111561151757611516611a6f565b5b14155b611559576040517f08c379a000000000000000000000000000000000000000000000000000000000815260040161155090611bca565b60405180910390fd5b6002600581111561156d5761156c611a6f565b5b600c60159054906101000a900460ff16600581111561158f5761158e611a6f565b5b146115cf576040517f08c379a00000000000000000000000000000000000000000000000000000000081526004016115c6906121a9565b60405180910390fd5b600a54421115611614576040517f08c379a000000000000000000000000000000000000000000000000000000000815260040161160b90612215565b60405180910390fd5b600c60009054906101000a900473ffffffffffffffffffffffffffffffffffffffff1673ffffffffffffffffffffffffffffffffffffffff163373ffffffffffffffffffffffffffffffffffffffff16036116a4576040517f08c379a000000000000000000000000000000000000000000000000000000000815260040161169b90612281565b60405180910390fd5b6001600c60146101000a81548160ff0219169083151502179055506003600c60156101000a81548160ff021916908360058111156116e5576116e4611a6f565b5b02179055503373ffffffffffffffffffffffffffffffffffffffff167f695fbf2fe28b4fde5705122279ffc4160ebfc0f45e4d96f7e6699001be5062ef60405160405180910390a2565b600460009054906101000a900473ffffffffffffffffffffffffffffffffffffffff1681565b600260005403611791576040517f3ee5aeb500000000000000000000000000000000000000000000000000000000815260040160405180910390fd5b6002600081905550565b6004600c60156101000a81548160ff021916908360058111156117c1576117c0611a6f565b5b021790555080600560006101000a81548173ffffffffffffffffffffffffffffffffffffffff021916908373ffffffffffffffffffffffffffffffffffffffff160217905550600047905060006127106008548361181f91906122a1565b6118299190612312565b9050600081836118399190612343565b9050600360009054906101000a900473ffffffffffffffffffffffffffffffffffffffff1673ffffffffffffffffffffffffffffffffffffffff166108fc839081150290604051600060405180830381858888f193505050501580156118a3573d6000803e3d6000fd5b508373ffffffffffffffffffffffffffffffffffffffff166108fc829081150290604051600060405180830381858888f193505050501580156118ea573d6000803e3d6000fd5b508373ffffffffffffffffffffffffffffffffffffffff167f502ff417105b720868ddf6004251e88263577903b54ae0915462ab5050eb9c148284604051611933929190612377565b60405180910390a250505050565b6001600081905550565b600080fd5b600073ffffffffffffffffffffffffffffffffffffffff82169050919050565b600061197b82611950565b9050919050565b61198b81611970565b811461199657600080fd5b50565b6000813590506119a881611982565b92915050565b6000602082840312156119c4576119c361194b565b5b60006119d284828501611999565b91505092915050565b60008115159050919050565b6119f0816119db565b82525050565b6000602082019050611a0b60008301846119e7565b92915050565b611a1a81611970565b82525050565b6000602082019050611a356000830184611a11565b92915050565b6000819050919050565b611a4e81611a3b565b82525050565b6000602082019050611a696000830184611a45565b92915050565b7f4e487b7100000000000000000000000000000000000000000000000000000000600052602160045260246000fd5b60068110611aaf57611aae611a6f565b5b50565b6000819050611ac082611a9e565b919050565b6000611ad082611ab2565b9050919050565b611ae081611ac5565b82525050565b6000602082019050611afb6000830184611ad7565b92915050565b600082825260208201905092915050565b7f4e6f742061726269746572000000000000000000000000000000000000000000600082015250565b6000611b48600b83611b01565b9150611b5382611b12565b602082019050919050565b60006020820190508181036000830152611b7781611b3b565b9050919050565b7f457363726f7720636c6f73656400000000000000000000000000000000000000600082015250565b6000611bb4600d83611b01565b9150611bbf82611b7e565b602082019050919050565b60006020820190508181036000830152611be381611ba7565b9050919050565b7f4e6f742064697370757465640000000000000000000000000000000000000000600082015250565b6000611c20600c83611b01565b9150611c2b82611bea565b602082019050919050565b60006020820190508181036000830152611c4f81611c13565b9050919050565b7f496e76616c69642077696e6e6572000000000000000000000000000000000000600082015250565b6000611c8c600e83611b01565b9150611c9782611c56565b602082019050919050565b60006020820190508181036000830152611cbb81611c7f565b9050919050565b7f496e76616c696420737461746500000000000000000000000000000000000000600082015250565b6000611cf8600d83611b01565b9150611d0382611cc2565b602082019050919050565b60006020820190508181036000830152611d2781611ceb565b9050919050565b7f46756e64696e67206f70656e0000000000000000000000000000000000000000600082015250565b6000611d64600c83611b01565b9150611d6f82611d2e565b602082019050919050565b60006020820190508181036000830152611d9381611d57565b9050919050565b7f4e6f74207061727469636970616e740000000000000000000000000000000000600082015250565b6000611dd0600f83611b01565b9150611ddb82611d9a565b602082019050919050565b60006020820190508181036000830152611dff81611dc3565b9050919050565b7f4e6f742066756e64656400000000000000000000000000000000000000000000600082015250565b6000611e3c600a83611b01565b9150611e4782611e06565b602082019050919050565b60006020820190508181036000830152611e6b81611e2f565b9050919050565b7f4e487b7100000000000000000000000000000000000000000000000000000000600052601160045260246000fd5b6000611eac82611a3b565b9150611eb783611a3b565b9250828201905080821115611ecf57611ece611e72565b5b92915050565b7f4e6f742066696e616c697a61626c650000000000000000000000000000000000600082015250565b6000611f0b600f83611b01565b9150611f1682611ed5565b602082019050919050565b60006020820190508181036000830152611f3a81611efe565b9050919050565b7f4469737075746564000000000000000000000000000000000000000000000000600082015250565b6000611f77600883611b01565b9150611f8282611f41565b602082019050919050565b60006020820190508181036000830152611fa681611f6a565b9050919050565b7f57696e646f77206f70656e000000000000000000000000000000000000000000600082015250565b6000611fe3600b83611b01565b9150611fee82611fad565b602082019050919050565b6000602082019050818103600083015261201281611fd6565b9050919050565b7f4f6e6c7920706172747942000000000000000000000000000000000000000000600082015250565b600061204f600b83611b01565b915061205a82612019565b602082019050919050565b6000602082019050818103600083015261207e81612042565b9050919050565b7f46756e64696e6720657870697265640000000000000000000000000000000000600082015250565b60006120bb600f83611b01565b91506120c682612085565b602082019050919050565b600060208201905081810360008301526120ea816120ae565b9050919050565b7f496e636f7272656374207374616b650000000000000000000000000000000000600082015250565b6000612127600f83611b01565b9150612132826120f1565b602082019050919050565b600060208201905081810360008301526121568161211a565b9050919050565b7f4e6f742070726f706f7365640000000000000000000000000000000000000000600082015250565b6000612193600c83611b01565b915061219e8261215d565b602082019050919050565b600060208201905081810360008301526121c281612186565b9050919050565b7f57696e646f7720636c6f73656400000000000000000000000000000000000000600082015250565b60006121ff600d83611b01565b915061220a826121c9565b602082019050919050565b6000602082019050818103600083015261222e816121f2565b9050919050565b7f50726f706f7365722063616e6e6f742064697370757465000000000000000000600082015250565b600061226b601783611b01565b915061227682612235565b602082019050919050565b6000602082019050818103600083015261229a8161225e565b9050919050565b60006122ac82611a3b565b91506122b783611a3b565b92508282026122c581611a3b565b915082820484148315176122dc576122db611e72565b5b5092915050565b7f4e487b7100000000000000000000000000000000000000000000000000000000600052601260045260246000fd5b600061231d82611a3b565b915061232883611a3b565b925082612338576123376122e3565b5b828204905092915050565b600061234e82611a3b565b915061235983611a3b565b925082820390508181111561237157612370611e72565b5b92915050565b600060408201905061238c6000830185611a45565b6123996020830184611a45565b939250505056fea2646970667358221220166b20c64b530c69e1ecf2988a3d9ffa181bf172304ec033f00d4c8ddf73eba064736f6c63430008140033",
  "linkReferences": {},
  "deployedLinkReferences": {}
}